:020000040800F2
:100000000005002001010008F71A0008E3160008A7
:10001000F51A00087D0600087D1C0008000000009D
:10002000000000000000000000000000FB1A0008B3
:100030007F06000800000000F91A0008FD1A0008F9
:100040001B0100081B0100081B0100081B01000820
:100050001B0100081B0100081B0100081B01000810
:100060001B0100081B010008810600081B01000895
:100070001B0100081B0100081B0100081B010008F0
:100080001B0100081B0100081B0100081B010008E0
:100090001B0100081B0100081B0100081B010008D0
:1000A0001B0100081B0100081B0100081B010008C0
:1000B0001B0100081B0100081B0100081B010008B0
:1000C0001B0100081B0100081B0100081B010008A0
:1000D0001B0100081B0100081B0100081B01000890
:1000E0001B0100081B0100081B010008DFF80CD0F1
:1000F00000F036FA004800475927000800050020A4
:100100000648804706480047FEE7FEE7FEE7FEE7B1
:10011000FEE7FEE7FEE7FEE7FEE7FEE7451B000819
:10012000ED000008202A04DB203A21FA02F0002129
:10013000704721FA02F3D040C2F1200291400843F7
:1001400019467047D2B201E000F8012B491EFBD2DC
:1001500070470022F6E710B513460A4604461946D2
:10016000FFF7F0FF204610BD30B50B4601460020DA
:100170002022012409E021FA02F59D4205D303FA69
:1001800002F5491B04FA02F52844151EA2F10102EA
:10019000F1DC30BD2DE9F05F0546002092469B461C
:1001A00088460646814640241BE02846414647468D
:1001B0002246FFF7B7FF53465A46C01A914110D363
:1001C00011461846224600F0DDF92D1A67EB0108AA
:1001D0004F4622460120002100F0D4F917EB000918
:1001E0004E41201EA4F10104DFDC484631462A4678
:1001F0004346BDE8F09F2DE9FE4F804681EA0300AB
:10020000C00F0C46009021F0004123F00045B8EBF0
:100210000200A94105D24046214690461C460B46A5
:10022000024623F00040104347D0270DC7F30A00D1
:10023000C3F30A510290401A019040286BDAC3F3CD
:10024000130040F4801B0098924620B10023D2EBAB
:10025000030A63EB0B0B01985946C0F1400250466C
:1002600000F090F906460D4650465946019A00F0B6
:1002700098F910EB08006141002487EA115284EAE2
:10028000E7731A4340D0009A62B3019A012A4FEAF9
:10029000075215DC001B61EB02014FF0004202EA3D
:1002A0000752CDE90042001C41F5801132462B4631
:1002B00000F096F903B0BDE8F08F40462146F9E71B
:1002C000001B61EB0201001C41F5801300185B412B
:1002D0002018A2F5001747EB030140EAD570B619C4
:1002E0006D4111E06D084FEA360645EAC0754FEAE8
:1002F0000752001B61EB0201001C41F58011490807
:100300004FEA30000019514132462B4603B0BDE898
:10031000F04F00F058B90098012240000023D0EBC4
:10032000020263EBE073009821464FEAE074B8EBF9
:10033000000061EB0401E9E783F000435BE781F033
:10034000004158E72DE9FE4F81EA030404F0004420
:1003500021F0004100944FF0000B23F0004350EADD
:1003600001045ED052EA03045BD0C3F30A54C1F324
:100370000A552C44A4F2F3340194A0FB0254C1F3B7
:10038000130141F48011C3F3130343F4801301FB01
:10039000024400FB034E840A970A44EA815447EA68
:1003A0008357A4FB076802958D0A05FB07854FEA72
:1003B000932C04FB0C542705029D4FEA065847EA8C
:1003C0001637B5EB08056EEB070C870E920E47EA61
:1003D000811742EA8312A7FB0201B6EB0B0164EB23
:1003E00000042B0D43EA0C335E1844EB1C50DA4634
:1003F0005146E7FB0201C5F313044FEA0B3343EA0E
:1004000014534FEA0432019C43EA0603A4F10C049E
:100410000294009CCDE900B400F0E2F803B0BDE81E
:10042000F08F00200146F9E72DE9F04D81EA030441
:1004300004F0004B21F0004514464FF0000A23F071
:10044000004150EA050220D054EA01021DD0C5F354
:100450000A570246C5F31303C1F31300C1F30A564A
:1004600040F4801543F48013A7EB0608101BD64612
:1004700008F2FD3873EB050002D308F1010801E032
:1004800092185B41B8F1000F03DA00200146BDE885
:10049000F08D00204FF48011064684460EE0171BB5
:1004A00073EB050705D3121B63EB050306434CEA08
:1004B000010C49084FEA300092185B4150EA0107ED
:1004C000EDD152EA030012D082EA040083EA05016A
:1004D000084305D0101BAB4106D20122002306E0E1
:1004E00000224FF0004302E06FF0010253101AEBBC
:1004F00006004CEB085110EB0A0041EB0B01BDE884
:10050000F04D00F060B8C1F30A52C1F3130140F29C
:10051000FF3341F480119A4202DA0020014670470D
:1005200040F233439A42A2F2334202DC5242FFF7D6
:10053000F9BD00F027B8000030B5002904DB4FF00A
:100540000044404264EB0101002B04DB4FF0004407
:10055000524264EB0303994208BF904230BD000051
:10056000064C074D06E0E06840F0010394E8070000
:1005700098471034AC42F6D3FFF7BCFDF4290008CD
:10058000142A0008202A04DB203A00FA02F1002095
:1005900070479140C2F1200320FA03F319439040C1
:1005A0007047202A06DBCB17203A41FA02F043EAD3
:1005B000E07306E041FA02F3D040C2F1200291401C
:1005C00008431946704710B5002B08DA401C41F16A
:1005D000000192185B411A4301D120F0010010BDC7
:1005E0002DE9F04D92469B4611B1B1FA81F202E03D
:1005F000B0FA80F220329046FFF7C4FF04460F465F
:1006000040EA0A0041EA0B0153465A46084313D018
:10061000114653EA010019D0C8F140025046FFF7D5
:1006200081FD05460E46504659464246FFF7AAFF51
:10063000084305D0012004E020463946BDE8F08D8E
:100640000020054346EAE0762C4337430A986305C9
:10065000E40AA0EB08000022FD0A44EA47540A30ED
:1006600002D500200146E9E7010510196941DDE9DD
:10067000084500196941BDE8F04DA4E7FEE7704761
:1006800070B5102000F032F80B4D4FF40074214685
:10069000284600F02CF90D21022001F0DBFF214655
:1006A000284600F01FF908B104A000E004A0BDE84E
:1006B000704002F047B80000000C01404F4E20008F
:1006C0004F46460070B5044600F01EF90546601C12
:1006D00002D004480078044400F016F9401BA04200
:1006E000FAD370BD1800002070470000044910B50F
:1006F0000A68024202D00860FFF7F6FF10BD000052
:10070000140401402DE9F84FDFF8B891002409F1F5
:10071000040A0AF1040B23460F270BF1040EC9E06B
:100720000125A5402A40AA427DD1674ED1F804C0D8
:10073000ACEB0608B44532D014DCBCF1030F3AD060
:1007400009DCBCF1000F2AD0BCF1010F1CD0BCF1B8
:10075000020F31D11DE0BCF1110F17D0BCF1120F07
:100760002AD119E0B8F5881F19D006DCB8F5803F0A
:1007700015D0B8F5801F1FD111E0B8F5001F0ED0BD
:10078000B8F5041F18D10AE0CB6815E0CB681B1D33
:1007900012E0CB6808330FE0CB680C330CE08B68B9
:1007A0002BB1012B4FF0080303D0456104E0042373
:1007B00002E0056100E00023FF2A01D8064601E0BF
:1007C00000F104064FEA840501D9A5F12005D6F809
:1007D000008007FA05FC28EA0C0803FA05F548EA48
:1007E0000508C6F800804D68ED0062D5374DAE694A
:1007F00046F00106AE61AD6924F0030605F001057F
:100800000095334D06EB050CDCF80850A607360FB3
:1008100007FA06F825EA0805DFF8B880404503D155
:100820004FF0000817E044E0DFF8AC80404502D10B
:100830004FF001080FE0DFF8A480404502D14FF0EF
:10084000020808E0DFF89880404502D14FF0030825
:1008500001E04FF0040808FA06F848EA0508CCF869
:1008600008804D68D9F80060ED034D4601D5164368
:1008700000E096432E604D68DAF80060AD035546FF
:1008800001D5164300E096432E604D68DBF800600A
:10089000ED025D4601D5164300E096432E604D689B
:1008A000DEF80060AD02754601D5164300E09643C0
:1008B0002E60641C0D682A46E5407FF431AFBDE828
:1008C000F88F0000000401400000111000100240E9
:1008D0000000014000080140000C014000100140F0
:1008E000001401408068084000D001207047C268B1
:1008F0000A4201D041617047016170470AB101614C
:1009000070470904FBE70000014880687047000059
:100910001800002070B504001BD094F83D0000259D
:1009200020B984F83C50204600F044FA242084F892
:100930003D002068016821F00101016000F096FB94
:100940004A4A6168914201D8494900E049498842D0
:1009500001D2012070BD48492368B0FBF1F15E6807
:1009600026F03F060E435E606368934206D94FF45B
:10097000967359434FF47A73B1FBF3F12368491C22
:100980001E6A26F03F0631431962616891420AD817
:100990004900401EB0FBF1F0401CC0F30B000428DE
:1009A0001ED204201CE0A368F3B301EBC10202EBEA
:1009B0000116421EB2FBF6F2521C42F480421205AE
:1009C00049D093B301EBC10202EB0111401EB0FB11
:1009D000F1F0401CC0F30B0040F4804040F40040B4
:1009E0002168CA694CF6FF739A431043C861D4E981
:1009F000071001432068026822F0C0021143016021
:100A0000D4E90310084321688A6848F2FF339A4307
:100A100010438860D4E9050108432168CA6822F0C0
:100A2000FF021043C86001E00EE016E02068016894
:100A300041F0010101602564202084F83D00256318
:100A400084F83E50002070BD01EB4106421EB2FB0F
:100A5000F6F2521CB3E70120C2E701EB4101401E50
:100A6000B0FBF1F0401CC0F30B00B7E7A08601001B
:100A700080841E0000093D0040420F002DE9F84F20
:100A80001F4690468A460446DDF82890FFF73CFF53
:100A9000054694F83D00202879D119230122774991
:100AA0002046009500F00AFF0028F5D194F83C009C
:100AB00001286CD0012084F83C0020680168C90737
:100AC00003D1016841F0010101602068016821F44F
:100AD00000610160222084F83D00102084F83E006F
:100AE00000262664C4F824806785608D20856448CC
:100AF000E0622B464A465146204600F00AFE002896
:100B00007ED1208D5F4F68B1012814D00228206863
:100B100001681ED041F480610160206841698069EC
:100B200000909DE02068416981690091016841F46D
:100B30000071016094E02068016821F48061016027
:100B400072B62068416981690091016841F40071C1
:100B50000AE041F40061016072B620684169816970
:100B60000091016821F48061016062B678E0032899
:100B700050D801280CD002284B464FF000023946CD
:100B8000204600950FD000F099FEC8BB10E073E03E
:100B90002A464946204600F010FF88BB20680069BD
:100BA000616A087053E000F089FE48BB72B61AE033
:100BB0002068016821F48061016072B620680069D4
:100BC000616A0870606A401C6062208D401E20854A
:100BD000608D401E60854B460022394620460095B8
:100BE00000F06CFE60B92068016841F4007101609A
:100BF00020680069616A0870606A401C606200E0F9
:100C00000EE0218D491E2185618D491E618562B6E8
:100C100021681AE02A464946204600F0CEFE10B16F
:100C20000120BDE8F88F20680069616A0870606A79
:100C3000401C6062218D491E2185618D491E6185A0
:100C400021684A69D24352070AD409690170606A6F
:100C5000401C6062208D401E2085608D401E608596
:100C6000208D002883D1202084F83D0084F83E6048
:100C700084F83C600020D4E70220D2E70200100094
:100C80000000FFFF040001002DE9F84F1F469046C9
:100C90008A460446DDF82890FFF736FE054694F8AC
:100CA0003D0020287FD1192301224049204600958C
:100CB00000F004FE002876D194F83C00012872D0A0
:100CC000012084F83C0020680168C90703D101684D
:100CD00041F0010101602068016821F400610160B8
:100CE000212084F83D00102084F83E000026266470
:100CF000C4F824806785608D20852D48E0622B46EE
:100D00004A465146204600F06FFD90B9206841697F
:100D10008069009036E02A464946204600F080FE71
:100D200050B1206C042804D12068016841F400719E
:100D300001600120BDE8F88F606A216800780861D1
:100D4000606A401C6062618D491E6185218D491E6B
:100D500089B2218522685369DB435B070BD451B10B
:100D600000781061606A401C6062608D401E608582
:100D7000208D401E20852A464946204600F078FDF9
:100D80000028CED1208D0028C5D154F83D0B016834
:100D900041F400710160202004F81E09E6776677AF
:100DA0000020C7E7FFE70220C4E7000002001000B0
:100DB0000000FFFF10B586B0002100910191029163
:100DC000039100680F4988421AD10F4CA06940F086
:100DD0000800A061A069694600F008000490C020E6
:100DE000009012200190032003900848FFF78AFC2E
:100DF000E06940F40010E061E06900F40010049044
:100E000006B010BD0054004000100240000C01402C
:100E10000248816802781144816070471800002000
:100E2000074810B5016841F010010160032000F08F
:100E300075F8002000F006F800F024F8002010BD3E
:100E40000020024070B50D4D04464FF47A712878A9
:100E5000B1FBF0F00A490968B1FBF0F000F0ECFAE0
:100E600048B9102C07D200222146501E00F036F857
:100E700000206C6070BD012070BD000018000020D3
:100E8000240000200C4808B5816941F0010181610E
:100E9000816901F001010091C16941F08051C16196
:100EA000C06900F0805000900448416821F0E06182
:100EB00041F00071416008BD001002400000014097
:100EC000002809DB00F01F02012191404009800049
:100ED00000F1E020C0F8001170470000F0B40E4BA4
:100EE0001B680C46C3F30223C3F10705042D00D988
:100EF0000425191D072901D2002300E0DB1E01266D
:100F000006FA05F1491E214099409E40761E164082
:100F10003143F0BC00F0C8BE0CED00E0064900F023
:100F2000070208684FF6FF03184040EA0220034A10
:100F300010430860704700000CED00E00000FA0567
:100F40002DE9F0470F46050061D0434E306800F0B0
:100F50000700B84209D2306820F0070038433060FB
:100F6000306800F00700B84251D128683B4C810737
:100F700012D5400703D5606840F4E06060602878CF
:100F8000000703D5606840F4605060606068A9683D
:100F900020F0F000084360602878C00728D0686817
:100FA000012810D02168022810D0890700292EDAE4
:100FB000616821F0030101436160FFF7A5FC8046F1
:100FC00041F288390DE021688903EFE78901EDE7F7
:100FD000FFF79AFCA0EB0801494502D90320BDE8C0
:100FE000F0876068696800F00C00B0EB810FEFD10A
:100FF000306800F00700B8420BD9306820F00700D5
:1010000038433060306800F00700B84201D001205A
:10101000E5E72878400705D56068E96820F4E060D6
:10102000084360602878000706D56068296920F4C5
:10103000605040EAC100606000F038F86168084A1A
:10104000C1F30311515CC8400649086006480068B6
:10105000FFF7F8FE0020C2E7002002400010024027
:10106000DC290008240000201C0000200448054959
:1010700000684968044AC1F30221515CC8407047C6
:101080002400002000100240EC2900080448054913
:1010900000684968044AC1F3C221515CC8407047E6
:1010A0002400002000100240EC29000812A185B0A5
:1010B0000FC98DE80F0014A0144A0068049051680D
:1010C000134801F00C03042B10D0082B0ED1C1F3F0
:1010D0008343C9031DF803000AD5516804AAC1F36C
:1010E0004041515C0A4A5043B0FBF1F005B07047F3
:1010F00008494843FAE70000020304050607080907
:101100000A0B0C0D0E0F101001020000001002401F
:1011100000127A0000093D002DE9F84F040070D05C
:101120002078C04DC00749D06868C0F3810001280D
:1011300007D06868C0F38100022809D16868C0033D
:1011400006D52868800339D560680028E7D035E0E7
:101150006068B0F5803F0BD010B1B0F5A02F11D072
:10116000286820F480302860286820F4802002E07D
:10117000286840F480302860606890B1FFF7C4FBB5
:1011800006460AE0286840F480202860F0E700BFA7
:10119000FFF7BAFB801B642873D828688003F7D553
:1011A0000CE0FFF7B1FB064605E000BFFFF7ACFB24
:1011B000801B6428F0D828688003F7D420789A4EE2
:1011C00080074FF001094FF0000839D5686810F02A
:1011D0000C0F07D06868C0F38100022809D1686845
:1011E000C00306D42868800714D52069012808D1D7
:1011F00010E02069B0B1C6F80090FFF785FB074604
:1012000005E00AE1FFF780FBC01B0228C4D828686C
:101210008007F7D52868616920F0F80040EAC1002E
:1012200028600DE0C6F80080FFF76EFB074604E07B
:10123000FFF76AFBC01B022823D828688007F7D471
:10124000207800072CD57948A169D9B1C0F8009061
:10125000FFF75AFB074604E0FFF756FBC01B0228C6
:101260000FD8686A8007F7D571484FF4FA510068C3
:10127000B0FBF1F0009000BF0098411E0091FAD23F
:101280000EE080E0C0F80080FFF73EFB074604E078
:10129000FFF73AFBC01B022875D8686A8007F7D4AD
:1012A0002078400760D5E8690027C00008D4E869C5
:1012B00040F08050E861E869012700F0805000901C
:1012C0005C480168C90513D40168834641F4807104
:1012D0000160FFF719FB824606E000BFFFF714FB31
:1012E000A0EB0A0064284ED8DBF80000C005F5D555
:1012F000E06801280AD008B1052813D0286A20F038
:1013000001002862286A20F0040002E0286A40F008
:1013100001002862E06841F2883B98B1FFF7F4FAD7
:1013200082460BE0286A40F004002862EEE700BF26
:10133000FFF7EAFAA0EB0A0159455AD8286A800754
:10134000F6D50CE0FFF7E0FA824605E0FFF7DCFA9D
:10135000A0EB0A0159454CD8286A8007F6D41FB182
:10136000E86920F08050E861E06988B36968C1F3FA
:101370008101022944D00228C6F8608004D0FFF71A
:10138000C3FA044638E034E0FFF7BEFA074604E04B
:10139000FFF7BAFAC01B02282BD828688001F7D4BF
:1013A000206AB0F5803F05D16868A16820F400305C
:1013B00008436860D4E908010843696821F474119E
:1013C00008436860C6F86090FFF79EFA044606E09E
:1013D00025E000BFFFF798FA001B022809D828680B
:1013E0008001F7D51BE000BFFFF78EFA001B022833
:1013F00002D90320BDE8F88F28688001F4D40EE0FC
:101400000128F7D06868226A00F48031914204D143
:10141000616A00F47010884201D00120EAE70020E0
:10142000E8E700000010024000004242800442420F
:10143000240000200070004010B5401EB0F1807FF5
:1014400001D3012010BD4FF0E02460610F2160172F
:1014500000F02AFC0020A06107202061002010BDC0
:1014600070B5040004D094F83900002510B106E0EE
:10147000012070BD84F83850204600F023F8242065
:1014800084F839002068C16821F40051C160204609
:1014900000F07CFB2068016921F490410161206823
:1014A000416921F02A0141612068C16841F400517D
:1014B000C160E563202084F8390084F83A000020F8
:1014C00070BD000070B586B00024009401940294B1
:1014D0000394234E0368234902200322224DB34282
:1014E00019D18B6943F480438B618B6903F480438A
:1014F00004938B6943F004038B618969039201F0C3
:10150000040104910102CDE9001069462846FFF765
:10151000F9F828151BE0154EB3421FD1CB6943F4EF
:101520000033CB61CB6903F4003304938B6943F040
:1015300004038B618969039201F004010491042181
:10154000CDE9001069462846FFF7DCF80820CDE910
:101550000004694628460294FFF7D4F806B070BD2F
:1015600000380140001002400008014000440040E3
:101570002DE9F843044690F83A00994616460D4680
:1015800020284FD195B18EB194F83800012849D068
:10159000012084F838000027E763222084F83A000D
:1015A000FFF7B2F9A6858046E68531E00120BDE867
:1015B000F883E08D401EE085A0684346B0F5805F6B
:1015C0004FF000024FF020012046CDF8009004D0EB
:1015D00000F022FB98B10320E9E700F01DFB002892
:1015E000F9D1206900282068406803D0C1B225F8ED
:1015F000011B0DE0C0F3080125F8021B08E020697B
:1016000000282068406801D000F07F0005F8010B39
:10161000E08D0028CDD1202084F83A0084F838707D
:101620000020C4E70220C2E72DE9F843044690F801
:1016300039001F4616460D46202850D1A5B19EB14F
:1016400094F8380001284AD0012084F838004FF07F
:101650000008C4F83C80212084F83900FFF754F9D1
:10166000A6848146E68426E00120BDE8F883E08C6C
:10167000401EE084A0684B46B0F5805F4FF000024A
:101680004FF080012046009703D000F0C5FAE8B97A
:101690000DE000F0C1FAC8B928882168C0F308003D
:1016A0004860206908B16D1C05E0AD1C03E02168AD
:1016B00015F8010B4860E08C0028D8D14B46002279
:1016C00040212046009700F0A7FA08B10320CCE79C
:1016D000202084F8390084F838800020C5E70220F3
:1016E000C3E7FEE701684A69D24352050FD46FF49D
:1016F00080624A61002140F8301F202242738173CA
:10170000026942F004020261017301207047002067
:1017100070472DE9F84F0446C06A1E4692460D46B2
:1017200021680A6842F480620A60082807D001280C
:1017300005D010F5803F02D0206B112804D120681D
:10174000016841F4807101604FF001185346002296
:1017500041462046009600F0B1F8F0BB206908F140
:101760000109B0F5804F0FD00620216800EAD51797
:1017700047F0F00008613346524608F10701204661
:1017800000F0D0F848BB03E0E8B240F001001BE0F5
:101790002168E8B20861334652464946204600F0C7
:1017A000C1F8D0B92068416981690091016841F4AC
:1017B000807101605346002241462046009600F0A9
:1017C0007DF850B947F0F100216808613346524670
:1017D0004946204600F0A6F800E001E0002800D0CD
:1017E0000120BDE8F88F0000F8B50446C06A1E4627
:1017F0000D461746082807D0012805D010F5803F70
:1018000002D0206B122804D12068016841F4807155
:101810000160134600224FF001112046009600F0AF
:101820004DF808BB2069B0F5804F0ED00620216826
:1018300000EAD51040F0F000086133463A460B4903
:10184000204600F06FF878B902E005F0FE0000E0F5
:10185000E8B221680861054933463A46891F2046A7
:1018600000F060F8002800D00120F8BD0800010059
:1018700070B516460D4604460DE02046FFF732FFD0
:1018800008B1012070BD681C05D0FFF73DF8801B32
:10189000A84207D835B120684069C0434007ECD45E
:1018A000002070BD002044F8300F20216173A07328
:1018B000216941F0200121612073E2E72DE9F04721
:1018C0001E4690460D460446C1F30747DDF82090BA
:1018D00008E0701C06D0FFF717F8A0EB0900B04233
:1018E0000FD876B12068012F18D0806925EA000052
:1018F0000004000C14D000214145EAD00020BDE8CE
:10190000F087002044F8300F20216173A073216913
:1019100041F02001216120730120F0E74069E5E7F3
:101920000121E9E72DE9F0479A4691460E46044623
:1019300000254FF02008C1F3074725E020684069E3
:10194000C043400514D42068016841F4007101606F
:1019500021686FF480604861256384F83D8084F8D5
:101960003E50206C40F00400206484F83C501FE09E
:10197000B9F1FF3F08D0FEF7C7FFA0EB0A014945C8
:101980000CD8B9F1000F09D02068012F13D080695D
:1019900026EA00000004000C0BD0CFE744F8305FCB
:1019A00084F80D80A573206940F020002061257324
:1019B0000120BDE8F0874069EAE72DE9F041002504
:1019C00090460E460446202717E04069C043C006F3
:1019D0000CD454F8301B6FF01000486144F81059D3
:1019E0006777A577206A2062257717E0FEF78CFFDE
:1019F000A0EB0800B04208D83EB120684169C94355
:101A00004906E2D40020BDE8F08144F8305F6773F6
:101A1000A573206940F02000206125730120F2E7C2
:101A200070B516460D4604460DE02046FFF75AFEF7
:101A300008B1012070BD681C05D0FEF765FF801B52
:101A4000A84207D835B120684069C0430006ECD4ED
:101A5000002070BD002044F8300F20216173A07376
:101A6000216941F0200121612073E2E770B586B061
:101A700000241D480094019402940394816941F06C
:101A800004018161816901F004010491816941F0DF
:101A9000080181618069154E00F008004FF402755D
:101AA0000490002229463046FEF728FF0220CDE9A7
:101AB000024000950125694601953046FEF722FE59
:101AC000102000900A48CDE9010569463046FEF72E
:101AD00019FE002211460A20FFF700FA0A20FFF73C
:101AE000EFF906B070BD000000100240000C01408C
:101AF00000001110FEE7704770477047FFF788B984
:101B000010B590B028216846FEF723FB14210AA8DF
:101B1000FEF71FFB022000900120049010200024FB
:101B2000059007946846FFF7F7FA0F20CDE90A04FD
:101B30000C940D9400210AA80E94FFF701FA10B03E
:101B400010BD00000D48016841F0010101604168CD
:101B50000B4A1140416001680A4A11400160016866
:101B600021F480210160416821F4FE0141604FF4BD
:101B70001F0181600449C0030860704700100240E3
:101B80000000FFF8FFFFF6FE08ED00E070B5044628
:101B900000680169E26821F4405111430161216943
:101BA000A0680843616908432168CA6841F20C6370
:101BB0009A430243CA6020684169A26921F44071D6
:101BC000114341611349206864253226884202D1BD
:101BD000FFF75CFA01E0FFF749FA00EBC00101EB07
:101BE000001061686FF018028900B0FBF1F1B1FBE1
:101BF000F5F0424301EB820106EB0111B1FBF5F177
:101C000001F0F00202EB001001F00F01084421681E
:101C1000886070BD003801402DE9F04198461746B4
:101C20000E460446069D1DE0681C1BD02DB1FEF734
:101C30006BFEA0EB0800A84214D92068C16821F40B
:101C4000D071C1602068416921F00101416120200B
:101C500084F8390084F83A00002084F83800032022
:101C6000BDE8F0812068006836EA000004D000205A
:101C7000B842D9D00020F3E70120F9E7FEE70000E1
:101C80000FB4084B10B504A902AA039800F0DEF8BF
:101C9000044602A9002000F070FC204610BC5DF84C
:101CA00014FB00007B2500080907090E002804DB4F
:101CB00000F1E02080F80014704700F00F0000F100
:101CC000E02080F8141D704702E008C8121F08C108
:101CD000002AFAD170477047002001E001C1121FAD
:101CE000002AFBD1704700002DE9FF5FDDE90220EB
:101CF000010DDDF838B0024318D044F61050A1F2BF
:101D0000FF3141430D140F98012820D0A5EB0B00A3
:101D1000401C5FEA000A4FF00004474EDFF81C91B8
:101D2000A046504616D5CAF1000728E00F980124B6
:101D300043A2012808D0002100980F9BC0E9002190
:101D4000C0E90243BDE8FF9F6FEA0B01F4E7CBF166
:101D50000000DEE7074612E0F80707D022463346C8
:101D600040464946FEF7EEFA80468946224633460B
:101D700010461946FEF7E6FA04460E467F10002F7D
:101D8000EAD1DDE90201BAF1000F42464B4602DA20
:101D9000FEF7D8FA01E0FEF747FB04460E460022A4
:101DA000284BFEF7C9FB03D84FF0FF30014607E090
:101DB0000022254B20463146FEF71DFAFEF7A3FB15
:101DC000102409E0002C0ADB0A220023FEF7E2F9C6
:101DD000019B30321A55641E50EA0102F2D1641C94
:101DE000019AC4F1110314440F9A012A03D001226D
:101DF00008430DD10AE0084304D000204FF0110B36
:101E00000F9080E7A3EB0B056D1E0DE05B4504DD35
:101E10004FF0000205F1010504E003DA4FF0000283
:101E2000A5F10105002AECD000980F99C0E9023114
:101E3000C0E9004586E70000000024400000F03FB4
:101E4000300000000000F0430000E03F2DE9FF4FAC
:101E500095B09B468946064600250FE2252877D196
:101E600000242746F84A0121059400E0044316F8AF
:101E7000013F203B01FA03F01042F7D130782A28C5
:101E800011D06FF02F033078A0F13002092A16D854
:101E9000059A44F0020402EB820203EB4202104472
:101EA000761C0590EFE759F8042B0592002A03DA17
:101EB000504244F40054059044F00204761C3078FB
:101EC0002E2816D116F8010F44F004042A280DD04C
:101ED0006FF02F023078A0F13003092B09D807EBFF
:101EE000870302EB4303C718761CF3E759F8047B1A
:101EF000761C30786C280FD006DC4C2817D0682868
:101F00000DD06A2814D104E0742810D07A280FD19B
:101F10000DE044F400140AE044F4801401E044F4B9
:101F200040147278824202D104F58014761C761C2B
:101F3000307866280BD013DC582877D009DC0028CD
:101F400075D04528F6D04628F4D047281AD19DE10F
:101F500018E0632835D0642879D0652812D195E13E
:101F6000702873D008DC6728F1D069286FD06E28FC
:101F70000DD06F2806D1B5E073282CD0752875D008
:101F8000782874D05A46179990476D1C75E1C4F3B0
:101F90000250022809D003280DD0D9F800100428D7
:101FA0000DD00D6009F1040967E1D9F80010EA17B6
:101FB000C1E90052F6E7D9F800100D80F2E70D7084
:101FC000F0E719F8041B8DF8001000208DF80100CF
:101FD000EA46012003E059F804AB4FF0FF306107F7
:101FE0004FF0000102D40DE008F101018846B9422A
:101FF0000FDA8045F8DB1AF808100029F4D108E060
:1020000008F1010188468142FADB1AF8081000291C
:10201000F6D105985B46A0EB080721463846179A8B
:1020200000F094FA284400EB080507E04DE029E1B0
:102030000DE01AF8010B5A4617999047B8F10108BC
:10204000F7D25B4621463846179A13E142E00A224E
:102050000092C4F302524FF0000A022A08D059F845
:1020600004CB032A4FEAEC710AD00DE029E02AE004
:1020700009F1070121F00702F2E802C1914609E0E7
:102080000FFA8CFC4FEAEC71042A03D14FFA8CFC56
:102090004FEAEC71002907DA0A460021DCF1000C56
:1020A00061EB02012D2202E0220504D52B228DF8DE
:1020B0000420012203E0E20701D02022F7E7904646
:1020C00059E00A2102E010220DE010214FF0000A31
:1020D00000910BE010224FF0000A44F0040408279E
:1020E000009203E008224FF0000A0092C4F302526B
:1020F000022A05D059F804CB0021032A08D009E0B0
:1021000009F1070121F00702F2E802C1914605E05A
:102110001FFA8CFC042A01D10CF0FF0C4FF00008D0
:10212000220728D5702806D0009B83F0100353EABD
:102130000A0305D00EE040228DF80420012208E0B9
:102140005CEA010206D030228DF804208DF80500EB
:1021500002229046009B83F0080353EA0A030AD147
:102160005CEA010201D1620705D530228DF8042016
:102170004FF001087F1E582804D034A003900EA809
:1021800002900DE036A0F9E753466046009AFEF74C
:1021900001F884460398825C0298401E0290027007
:1021A0005CEA0100F0D1029806A9081A00F1200AA1
:1021B000600702D524F4803400E00127574502DD92
:1021C000A7EB0A0000E0002000EB0A010090059850
:1021D0004144401A0590E00306D45B462146179A15
:1021E000059800F0B3F90544002706E001A85A4617
:1021F000C05D179990476D1C7F1C4745F6DBE003D7
:102200000CD55B462146179A059800F09FF90544C6
:1022100004E030205A46179990476D1C0099481EDB
:1022200000900029F5DC08E0029802995A460078EF
:10223000491C0291179990476D1CBAF10001AAF14F
:10224000010AF1DC65E10000092801003031323378
:1022500034353637383961626364656600000000E2
:1022600030313233343536373839414243444546CC
:102270000000000000F058F90544761C3078002872
:102280007FF4ECAD19B02846BDE8F08F620700D4AA
:10229000062709F1070222F0070CFCE80223E146B9
:1022A00003F000485FEA080C02D00FF2702C0DE03A
:1022B0005FEA045C02D50FF2682C07E05FEAC47C99
:1022C00002D00FF2602C01E0AFF2700C4FF0FF383B
:1022D00023F00043CDF850C065280CD006DC45281B
:1022E00009D046281DD047283DD13DE0662818D0AA
:1022F00067287ED138E00021112F01DB112000E09A
:10230000781CCDE9000106A90EA8FFF7EDFCDDE978
:102310000F010E9A03910021009207F1010A049126
:102320004DE04FF000400097CDE9011006A90EA83E
:10233000FFF7DAFCDDE90F0203920E9B11990022F0
:10234000DDF80CA00093049211B9791C00EB010A8E
:10235000B7EB0A0004D4C0F1FF3007F1010A049082
:10236000AAEB0700019044E0012F00DA01270021C9
:10237000112F01DD112000E03846CDE9000106A94A
:102380000EA8FFF7B1FCDDE90F010E9A03910021C1
:1023900004910092BA4621070CD40399514500DA02
:1023A0008A46BAF1010F05DD009AAAF10101515CDC
:1023B000302908D0B84202DA10F1040F06DA012100
:1023C000CDE9011015E0AAF10101E9E7002805DCDB
:1023D000049901440491AAEB000102E0411C51451B
:1023E00000DD8A460499401A401C01904FF00040DD
:1023F0000290200704D40198504501DBCDF80480F9
:1024000000208DF84F0002980DF14F07B0F1004FFA
:1024100025D02B200E9002984FF0020800280CDAED
:10242000404202902D200E9007E00A210298FDF70D
:102430009BFE3031029007F8011DB8F10001A8F1B0
:102440000108F2DC02980028EFD1791E0E9808707E
:10245000307800F0200040F0450007F8020D12A887
:10246000C01B00F107081498007800B1012000EBB0
:102470000A01019801EBE07105984144401A401EA1
:102480000590E00306D45B462146179A059800F0B4
:102490005DF805441498007818B15A46179990478A
:1024A0006D1CE00324D55B462146179A059800F081
:1024B0004DF805441CE00498002807DBDDE9030122
:1024C000884203DD0098405C179901E0179930209D
:1024D0005A469047049805F10105401C0490019864
:1024E000401E019004D12E205A46179990476D1C2A
:1024F000BAF10001AAF1010ADDDC05E017F8010BD1
:102500005A46179990476D1CB8F10001A8F10108CF
:10251000F4DC5B462146179A0598ABE62D000000D7
:102520002B000000200000002DE9F04104460025AA
:102530001E461746880404D405E039462020B047DB
:102540006D1C641EF9D52846BDE8F0812DE9F041E7
:10255000044600251E469046C80301D5302700E0FA
:102560002027880404D505E041463846B0476D1C55
:10257000641EF9D52846BDE8F0810A68531C0B603B
:102580001070704700B585B00021012000F062F89E
:1025900023A000F0D7F80021022000F05BF821A072
:1025A00000F0D0F80721012000F054F81EA000F040
:1025B000C9F80721022000F04DF81DA000F0C2F874
:1025C00000F0C8F91C494FF47072C8601BA104A840
:1025D000FFF756FB0C21012000F03CF804A800F0A6
:1025E000B1F800F069F90022154B16A16846FFF713
:1025F00047FB164A164B13A102A8FFF741FB032124
:10260000012000F027F8684600F09CF80321022022
:1026100000F020F802A800F095F805B000BD000019
:10262000543A0000483A0000434F323A000000009C
:1026300052454C41593A000000000020256400003A
:102640000040404025322E6600000000CDCCCCCCAE
:10265000CCCC4A40012805D04031C8B240F08000BF
:1026600000F030B88031C8B2FAE710B5332000F07E
:1026700029F8322000F026F83220FEF723F828202F
:1026800000F020F83220FEF71DF8012000F01AF8C3
:102690003220FEF717F8062000F014F83220FEF77B
:1026A00011F80C2000F00EF83220FEF70BF8022093
:1026B00000F008F83220FEF705F8BDE81040802051
:1026C000AFF300801CB500F0F00141F00C028DF872
:1026D000042041F0080100018DF8051040F00C01C4
:1026E0008DF8061040F008008DF807006420009077
:1026F000042301AA7E210248FEF7C6FA1CBD000091
:10270000280000201CB500F0F00141F00D028DF80A
:10271000042041F0090100018DF8051040F00D0181
:102720008DF8061040F009008DF807006420009035
:10273000042301AA7E210248FEF7A6FA1CBD000070
:102740002800002010B5044602E0641CFFF7DAFF01
:1027500020780028F9D110BD08B5FEF761FBFFF71E
:10276000CFF9FFF783F947484549002401604649FE
:10277000C0E901144FF48041C0E903414461846120
:10278000C4610462FEF7C6F83E48404954304FF435
:1027900016550160C0E901540C26C460C0E9044626
:1027A0008461C461FEF75CFE3648394994300160AB
:1027B000C0E90154C460C0E904468461C461FEF705
:1027C0004FFE344802214FF47A75017044708470D2
:1027D0000246032380212B480095FEF755FAFFF7A8
:1027E00044FF00210120FFF735FF2BA0FFF7AAFFD0
:1027F00000210220FFF72EFF28A0FFF7A3FF0721EB
:102800000120FFF727FF26A0FFF79CFF07210220EA
:10281000FFF720FF24A0FFF795FF0D210220FFF70F
:1028200019FF23A0FFF78EFF1A4E4227DFF884B06E
:10283000103E4FF4007A4FF001084FF4FA6900BFE0
:10284000FFF7A0FE8DF80070B089010A8DF8011025
:102850008DF8020051465846FEF744F810B18DF845
:10286000038001E08DF8034006482B4604226946A8
:102870005430FEF7D9FE4846FDF724FFE0E700009C
:102880000054004028000020A086010000380140CC
:102890000044004010000020543A0000483A000074
:1028A000434F323A0000000052454C41593A000073
:1028B0004F464600000C0140F8B5204D0026642428
:1028C0002E7001232A4680211D480094FEF7DCF972
:1028D0001420FDF7F7FE02232A46802118480094B1
:1028E000FEF7CCF82888A5F1100440BA20701548EE
:1028F0006060012028704FF47A7703462A468021D1
:102900000F480097FEF7C0F91420FDF7DBFE022305
:102910002A4680210A480097FEF7B0F828880A4A1C
:1029200040BA6070A66060680849904202D8084AC0
:10293000904200DD6160A160F8BD00001000002041
:1029400028000020000020C20000A0C1000080BFBD
:102950000000F04210B51DA286B007CA03AC4FF4C8
:10296000165384E80700092203A91B48FEF75CFE02
:102970004FF4FA63092269461748FEF7F9FD00286B
:1029800022D19DF80110401E86291DD1002201216F
:102990006B465C5C491C2244D2B20829F9DB5142E7
:1029A0009DF80820C9B28A420ED19DF802009DF818
:1029B000031001EB00204FF4C871884203DB41F2A1
:1029C0008831884200DD084606B010BDFF01860050
:1029D0000000000079000000BC00002000000000A2
:1029E00000000000010203040607080900000000BF
:1029F00001020304142A000800000020280000003F
:102A0000C81C00083C2A000828000020D804000048
:102A1000D81C0008000000000000000000000000BA
:102A200000000000000000000000000001000000A5
:0C2A300010000000000000000024F40072
:04000005080000ED02
:00000001FF
